:100000000C942A000C9434000C9434000C943400AA
:100010000C9434000C9434000C9434000C94340090
:100020000C9434000C9434000C9434000C94340080
:100030000C9434000C9434000C9434000C94340070
:100040000C9434000C9434000C9434000C94340060
:100050000C94340011241FBECFE5D8E0DEBFCDBF25
:100060000E9436000C9467000C9400000E943F0030
:100070000E9449000E9453000E945D00FDCF2FEFB7
:1000800089E698E1215080409040E1F700C00000EF
:1000900008952FEF89E698E1215080409040E1F7E4
:1000A00000C0000008952FEF89E698E121508040BC
:1000B0009040E1F700C0000008952FEF89E698E135
:1000C000215080409040E1F700C000000895F8946E
:0200D000FFCF60
:04000003000000A653
:00000001FF
