:100000000C942A000C943C000C943C000C943C0092
:100010000C943C000C943C000C943C000C943C0070
:100020000C943C000C943C000C943C000C943C0060
:100030000C943C000C943C000C943C000C943C0050
:100040000C943C000C943C000C943C000C943C0040
:100050000C943C0011241FBECFE5D8E0DEBFCDBF1D
:1000600020E0A0E6B0E001C01D92A336B207E1F7A0
:100070000E943E000C94C3000C9400000E944700B4
:100080000E9458000E9462000E946C00FDCFE0E6D2
:10009000F0E084E4808386E090E0928381830E9494
:1000A0009F000E94A6000E94B1000E94BC0008951B
:1000B0002FEF89E698E1215080409040E1F700C0A1
:1000C000000008952FEF89E698E12150804090408C
:1000D000E1F700C000000895CF93DF93C0E0D0E0C7
:1000E000CE010E94A400CE010E94AE00CE010E946B
:1000F000B900CE010E94C1008FE19EE40197F1F7A3
:1001000000C000002196CF3FD10551F7CFEFD0E0DE
:10011000CE010E94A400CE010E94AE00CE010E943A
:10012000B900CE010E94C1008FE19EE40197F1F772
:1001300000C00000219761F7DF91CF91089583B748
:10014000896683BFBB9A08958CBF08958FB5806878
:100150008FBD8EB582608EBD8D9A08959BBD8ABD80
:1001600008958FB580628FBD8EB582608EBD8C9AEA
:10017000089599BD88BD089585B5896685BD8F9A16
:0A018000089583BD0895F894FFCFA1
:04000003000000C435
:00000001FF
